:100000000C942D000C942C020C942C020C942C02B9
:100010000C942C020C942C020C942C020C942C02A8
:100020000C942C020C942C020C949E010C946301F1
:100030000C942C020C942C020C942C020C942C0288
:100040000C942C020C942C020C942C020C942C0278
:100050000C942C0200600069800011241FBECFE5C3
:10006000D8E0DEBFCDBFE4E5F0E040E017C0B591D9
:10007000A59135912591059107FD0CC0959185912C
:10008000EF01F92FE82F05900D92A217B307D9F7CA
:10009000FE0104C01D92A217B307E1F7E935F4078A
:0E00A00031F70E94FF010C940A02F894FFCF82
:1000AE009DEC899F912D1124969596959695392FB5
:1000BE00330F232F220F220F230F821B282F613085
:1000CE0019F06230C1F108959230A1F018F4913018
:1000DE0031F008959330C9F0943011F108953AB388
:1000EE0081E090E002C0880F991F2A95E2F7832BDA
:1000FE008ABB089537B381E090E002C0880F991F44
:10010E002A95E2F7832B87BB089534B381E090E004
:10011E0002C0880F991F2A95E2F7832B84BB08959E
:10012E0031B381E090E002C0880F991F2A95E2F763
:10013E00832B81BB08959230A9F018F4913031F0E1
:10014E0008959330D9F0943029F108953AB381E0AF
:10015E0090E002C0880F991F2A95E2F780958323BD
:10016E008ABB089537B381E090E002C0880F991FD3
:10017E002A95E2F78095832387BB089534B381E0F7
:10018E0090E002C0880F991F2A95E2F7809583238D
:10019E0084BB089531B381E090E002C0880F991FAF
:0C01AE002A95E2F78095832381BB089519
:1001BA009DEC899F912D1124969596959695392FA8
:1001CA00330F232F220F220F230F821B282F613078
:1001DA0019F06230C1F108959230A1F018F491300B
:1001EA0031F008959330C9F0943011F108953BB37A
:1001FA0081E090E002C0880F991F2A95E2F7832BCD
:10020A008BBB089538B381E090E002C0880F991F34
:10021A002A95E2F7832B88BB089535B381E090E0F5
:10022A0002C0880F991F2A95E2F7832B85BB089590
:10023A0032B381E090E002C0880F991F2A95E2F755
:10024A00832B82BB08959230A9F018F4913031F0D3
:10025A0008959330D9F0943029F108953BB381E0A1
:10026A0090E002C0880F991F2A95E2F780958323B0
:10027A008BBB089538B381E090E002C0880F991FC4
:10028A002A95E2F78095832388BB089535B381E0E8
:10029A0090E002C0880F991F2A95E2F78095832380
:1002AA0085BB089532B381E090E002C0880F991FA0
:0C02BA002A95E2F78095832382BB08950B
:1002C6001F920F920FB60F9211242F933F934F93C5
:1002D6005F936F937F938F939F93AF93BF93EF93A8
:1002E600FF93809162009091630001969093630062
:1002F6008093620083349F4069F480EC82BF109241
:10030600630010926200E0916600F09167003097FA
:1003160009F00995FF91EF91BF91AF919F918F9150
:100326007F916F915F914F913F912F910F900FBEEB
:060336000F901F901895C6
:10033C001F920F920FB60F9211242F933F934F934E
:10034C005F936F937F938F939F93AF93BF93EF9331
:10035C00FF938091600090916100019690936100F1
:10036C0080936000883E934059F410926100109283
:10037C006000E0916400F0916500309709F00995F8
:10038C00FF91EF91BF91AF919F918F917F916F9161
:10039C005F914F913F912F910F900FBE0F901F9037
:0203AC001895A2
:1003AE0084B78F7B84BF84B7886084BF83E68CBF9D
:1003BE0089B7826089BF84B78B7F84BF84B7826020
:0A03CE0084BF84B78E7F84BF0895BA
:1003D80080916800811108C061E084E10E94DD001D
:1003E80081E080936800089562E084E10E94DD0066
:0603F80010926800089558
:1003FE000E941F020E9428028CEE91E00E941502BC
:06040E000E94D701FFCFA0
:10041400EC010E9431020E943002CE010E9432029D
:06042400CE010E942E0231
:10042A00009731F0909365008093640080E008950E
:04043A0081E00895C0
:10043E0061E084E10E94570062E084E10E94DD00E9
:02044E0008950F
:080450008FB780688FBF08958B
:040458000C94000000
:04045C000E945500A5
:020460000895FD
:020462000895FB
:020464000895F9
:00000001FF
