:100000000C942A000C943F000C943F000C943F0089
:100010000C943F000C943F000C943F000C943F0064
:100020000C943F000C943F000C943F000C943F0054
:100030000C943F000C943F000C943F000C943F0044
:100040000C943F000C943F000C943F000C943F0034
:100050000C943F0011241FBECFE5D8E0DEBFCDBF1A
:1000600010E0A0E6B0E0E6E4F8E002C005900D92F2
:10007000AE3BB107D9F70E94EA010C9421040C941D
:10008000000061E08EE10E949E0261E08FE10E942B
:100090009E0261E080E20E949E0261E081E20E9495
:1000A0009E0262E082E20E949E0262E083E20E947F
:1000B0009E0262E084E20E949E0262E085E20E946B
:1000C0009E026FEF83E00E94CA030895DF92EF92D1
:1000D000FF920F931F93CF93DF930F2EF0E6EF2E37
:1000E000F0E0FF2EF02DDD24DA94DEE162E08D2FCA
:1000F0000E9434038701C2E28C2F0E94DD0381112C
:1001000012C081EE94E00197F1F700C000008C2F3F
:100110000E94DD03811107C08C2F0E94DD0388231C
:10012000D9F3F801D080CF5F0F5F1F4FC63221F7A0
:1001300061E08D2F0E943403DF5FF4E0EF0EF11CCD
:10014000D232A1F68D2DDF91CF911F910F91FF90AB
:10015000EF90DF90089561E086E10E94340383E030
:100160008A95F1F7000062E086E10E94340383EF94
:1001700091E00197F1F700C000000895CF93C82FD8
:1001800062E084E10E943403CC232CF461E081E13D
:100190000E94340304C062E081E10E943403C6FF80
:1001A00005C061E080E10E94340304C062E080E1A8
:1001B0000E943403C5FF05C061E08FE00E94340354
:1001C00004C062E08FE00E943403C4FF05C061E018
:1001D0008EE00E94340304C062E08EE00E9434038B
:1001E0000E94AB00C3FF05C061E081E10E943403BF
:1001F00004C062E081E10E943403C2FF05C061E0F7
:1002000080E10E94340304C062E080E10E94340374
:10021000C1FF05C061E08FE00E94340304C062E0CA
:100220008FE00E943403C0FF05C061E08EE00E94B1
:10023000340304C062E08EE00E9434030E94AB00ED
:10024000CF91089561E08EE00E949E0261E08FE010
:100250000E949E0261E080E10E949E0261E081E1D5
:100260000E949E0261E084E10E949E0261E086E1BC
:100270000E949E0261E085E10E949E0262E085E1AB
:100280000E94340387EA91E60197F1F700C000006D
:1002900083E30E94BE0082E40E94BE0088E20E94C6
:1002A000BE008EE00E94BE0081E00E94BE0082E09F
:1002B0000E94BE000895813019F0823031F0089517
:1002C0008FE7860F0E94BE0008958FEB860F0E9475
:1002D000BE000895CF93C82F61E084E10E943403EB
:1002E000CC232CF461E081E10E94340304C062E07D
:1002F00081E10E943403C6FF05C061E080E10E94F5
:10030000340304C062E080E10E943403C5FF05C0ED
:1003100061E08FE00E94340304C062E08FE00E943D
:100320003403C4FF05C061E08EE00E94340304C0C2
:1003300062E08EE00E9434030E94AB00C3FF05C060
:1003400061E081E10E94340304C062E081E10E9427
:100350003403C2FF05C061E080E10E94340304C0A1
:1003600062E080E10E943403C1FF05C061E08FE0DC
:100370000E94340304C062E08FE00E943403C0FF97
:1003800005C061E08EE00E94340304C062E08EE0AC
:100390000E9434030E94AB00CF910895CF93DF9366
:1003A000EC018881882331F021960E946A018991AD
:1003B0008111FBCFDF91CF910895CF93DF93EC01B3
:1003C000862F642F0E945B01CE010E94CE01DF9137
:1003D000CF910895CF92DF92EF92FF920F931F93E8
:1003E000CF93DF93CDB7DEB728970FB6F894DEBF73
:1003F0000FBECDBF81E3898382E38A8383E38B834E
:1004000084E38C831D821E821F8218860E94410015
:100410000E9422010F2EF3E0EF2EF02DCC24C39486
:10042000D12CF12C00E080E790E00E94CE0110E09A
:100430000E94660000008F3F09F46BC08D3361F0AD
:10044000E5E0F0E0EC0FFD1FE10FF11D80831F5F81
:100450008AE20E946A015DC0FE013196DE011596B6
:10046000AD018C2D9D2D31912D91321711F08F2DD5
:10047000902FE417F507B9F7892BA1F081E00E94CE
:10048000BE0080E890E00E94CE012FE38DE093E073
:10049000215080409040E1F700C0000081E00E94C0
:1004A000BE003BC081E00E94BE0041E061E081E906
:1004B00090E00E94DD0141E062E088E890E00E9467
:1004C000DD012FE38DE093E0215080409040E1F783
:1004D00000C0000081E00E94BE00EA94E110A3CFBA
:1004E00041E061E08BE990E00E94DD0141E062E0E3
:1004F0008BEA90E00E94DD012FE78AE196E021502F
:1005000080409040E1F700C0000081E00E94BE0002
:1005100004C0143008F48CCF9FCF80E090E0289680
:100520000FB6F894DEBF0FBECDBFDF91CF911F9104
:100530000F91FF90EF90DF90CF9008959DEC899FF1
:10054000912D1124969596959695392F330F232F3B
:10055000220F220F230F821B613021F0623009F439
:1005600040C008959230B1F018F4913031F0089500
:100570009330E9F0943041F108954AB321E030E03E
:10058000B90102C0660F771F8A95E2F7CB01842B71
:100590008ABB089547B321E030E0B90102C0660F7D
:1005A000771F8A95E2F7CB01842B87BB089544B36C
:1005B00021E030E0B90102C0660F771F8A95E2F7AB
:1005C000CB01842B84BB089541B321E030E0B90115
:1005D00002C0660F771F8A95E2F7CB01842B81BB9F
:1005E00008959230B9F018F4913031F008959330B5
:1005F000F9F0943059F108954AB321E030E0B9019F
:1006000002C0660F771F8A95E2F7CB01809584239D
:100610008ABB089547B321E030E0B90102C0660FFC
:10062000771F8A95E2F7CB018095842387BB0895D5
:1006300044B321E030E0B90102C0660F771F8A950C
:10064000E2F7CB018095842384BB089541B321E078
:1006500030E0B90102C0660F771F8A95E2F7CB013F
:100660008095842381BB08959DEC899F912D112451
:10067000969596959695392F330F232F220F220F9B
:10068000230F821B613021F0623009F440C00895CD
:100690009230B1F018F4913031F008959330E9F0D0
:1006A000943041F108954BB321E030E0B90102C02C
:1006B000660F771F8A95E2F7CB01842B8BBB0895D9
:1006C00048B321E030E0B90102C0660F771F8A9578
:1006D000E2F7CB01842B88BB089545B321E030E0DD
:1006E000B90102C0660F771F8A95E2F7CB01842B10
:1006F00085BB089542B321E030E0B90102C0660F26
:10070000771F8A95E2F7CB01842B82BB0895923044
:10071000B9F018F4913031F008959330F9F0943035
:1007200059F108954BB321E030E0B90102C0660FE2
:10073000771F8A95E2F7CB01809584238BBB0895C0
:1007400048B321E030E0B90102C0660F771F8A95F7
:10075000E2F7CB018095842388BB089545B321E05F
:1007600030E0B90102C0660F771F8A95E2F7CB012E
:100770008095842385BB089542B321E030E0B90120
:1007800002C0660F771F8A95E2F7CB01809584231C
:1007900082BB0895823059F018F4813031F0089509
:1007A000833039F0843039F008956BBB089568BB0D
:1007B000089565BB089562BB08959DEC899F912DB6
:1007C0001124292F269526952695220F322F330F97
:1007D000330F230F821B282F892F869586958695A8
:1007E000823091F018F4813031F029C08330A9F0C3
:1007F0008430E1F024C089B390E002C095958795DC
:100800002A95E2F78170089586B390E002C095952D
:1008100087952A95E2F78170089583B390E002C02E
:10082000959587952A95E2F78170089580B390E0B9
:1008300002C0959587952A95E2F78170089580E02A
:060840000895F894FFCFBB
:100846003738392F343536783132332D43303D2B16
:10085600456E7465722050617373776F72643A00E7
:10086600436F72726563742050617373776F72643D
:1008760000496E636F727265637400596F752072FA
:1008860065616368656420746865006D6178696D8B
:0E089600756D20617474656D707473210000BF
:00000001FF
