S010000070726F6A656374332E73726563EA
S11300000C942A000C943F000C943F000C943F0085
S11300100C943F000C943F000C943F000C943F0060
S11300200C943F000C943F000C943F000C943F0050
S11300300C943F000C943F000C943F000C943F0040
S11300400C943F000C943F000C943F000C943F0030
S11300500C943F0011241FBECFE5D8E0DEBFCDBF16
S113006010E0A0E6B0E0E6E9F9E002C005900D92E8
S1130070A83BB107D9F70E94BC020C94C9040C94A4
S1130080000061E086E10E94EF0383E08A95F1F7C6
S1130090000062E086E10E94EF0383EF91E00197A4
S11300A0F1F700C000000895CF93C82F62E084E107
S11300B00E94EF03CC232CF461E081E10E94EF0362
S11300C004C062E081E10E94EF03C6FF05C061E065
S11300D080E10E94EF0304C062E080E10E94EF032C
S11300E0C5FF05C061E08FE00E94EF0304C062E039
S11300F08FE00E94EF03C4FF05C061E08EE00E9420
S1130100EF0304C062E08EE00E94EF030E9441000E
S1130110C3FF05C061E081E10E94EF0304C062E017
S113012081E10E94EF03C2FF05C061E080E10E940B
S1130130EF0304C062E080E10E94EF03C1FF05C049
S113014061E08FE00E94EF0304C062E08FE00E9450
S1130150EF03C0FF05C061E08EE00E94EF0304C01E
S113016062E08EE00E94EF030E944100CF91089567
S113017061E08EE00E94590361E08FE00E94590320
S113018061E080E10E94590361E081E10E9459032A
S113019061E084E10E94590361E086E10E94590311
S11301A061E085E10E94590362E085E10E94EF036A
S11301B087EA91E60197F1F700C0000082E00E940F
S11301C0540088E20E9454008EE00E94540081E0B2
S11301D00E9454000895CF93C82F61E084E10E94E7
S11301E0EF03CC232CF461E081E10E94EF0304C00F
S11301F062E081E10E94EF03C6FF05C061E080E197
S11302000E94EF0304C062E080E10E94EF03C5FF97
S113021005C061E08FE00E94EF0304C062E08FE05C
S11302200E94EF03C4FF05C061E08EE00E94EF036B
S113023004C062E08EE00E94EF030E944100C3FF0D
S113024005C061E081E10E94EF0304C062E081E146
S11302500E94EF03C2FF05C061E080E10E94EF034A
S113026004C062E080E10E94EF03C1FF05C061E0C9
S11302708FE00E94EF0304C062E08FE00E94EF036E
S1130280C0FF05C061E08EE00E94EF0304C062E09D
S11302908EE00E94EF030E944100CF910895CF9316
S11302A0DF93EC018881882331F021960E94EB00D2
S11302B089918111FBCFDF91CF910895813019F09D
S11302C0823031F008958FE7860F0E94540008951C
S11302D08FEB860F0E9454000895CF93C82F862F6A
S11302E0642F0E945E018C2F0E94EB00CF91089531
S11302F0CF93DF93EC01862F642F0E945E01CE0121
S11303000E944F01DF91CF9108950F931F93CF93D4
S1130310DF93009799F0683088F48C01862F880F5A
S1130320880F880F805C0E945400E801085F1F4F0B
S113033089910E94EB00C017D107D1F7DF91CF91CB
S11303401F910F91089562E08EE10E94590362E0CB
S11303508FE10E94590362E080E20E94590362E047
S113036081E20E94590362E082E20E94590362E042
S113037083E20E94590362E084E20E94590362E02E
S113038085E20E945903089560E088E990E00E94A4
S113039085014091A2006091A00080E00E946D015F
S11303A02FE58AEE90E0215080409040E1F700C0B4
S11303B000008091A2009091A30001969093A30065
S11303C08093A200089561E080E990E00E94850195
S11303D04091A2006091A00081E00E946D012FE590
S11303E08AEE90E0215080409040E1F700C0000088
S11303F08091A2009091A30001969093A300809312
S1130400A200089562E088E890E00E94850140918E
S1130410A2006091A00082E00E946D012FE58AEEA7
S113042090E0215080409040E1F700C000008091AE
S1130430A2009091A30001969093A3008093A20040
S1130440089563E080E890E00E9485014091A20055
S11304506091A00083E00E946D012FE58AEE90E098
S1130460215080409040E1F700C000008091A2003C
S11304709091A30001969093A3008093A200089505
S113048064E088E790E00E9485014091A2006091B9
S1130490A00084E00E946D012FE58AEE90E02150D7
S11304A080409040E1F700C000008091A20090914C
S11304B0A30001969093A3008093A200089565E0A1
S11304C080E790E00E9485014091A2006091A00025
S11304D085E00E946D012FE58AEE90E02150804076
S11304E09040E1F700C000008091A2009091A30029
S11304F001969093A3008093A200089566E088E695
S113050090E00E9485014091A2006091A00086E0E5
S11305100E946D012FE58AEE90E0215080409040CA
S1130520E1F700C000008091A2009091A300019621
S11305309093A3008093A200089567E080E690E082
S11305400E9485014091A2006091A00087E00E9472
S11305506D012FE58AEE90E0215080409040E1F754
S113056000C000008091A2009091A3000196909396
S1130570A3008093A20008950E94B8000E94A301E2
S113058041E061E084EA90E00E947801C6E04C2FEB
S113059061E08EE20E946D0183EC99E00197F1F72E
S11305A000C00000CF5FC93091F79FE926E881E0E1
S11305B0915020408040E1F700C0000081E00E949B
S11305C0540041E061E08AEA90E00E9478019FE3F0
S11305D02DE083E0915020408040E1F700C000000E
S11305E081E00E945400C1E0D0E08091A00090918D
S11305F0A1008230910599F42091A2003091A300CA
S11306002F30310561F481E00E945400D093A3009F
S1130610C093A200D093A100C093A00010C0209169
S1130620A2003091A3002031310549F40196909342
S1130630A1008093A000D093A300C093A2008EE1F8
S11306400E948504813011F40E94C4018FE10E944C
S11306508504813011F40E94E30180E20E94850444
S1130660813011F40E94020281E20E9485048130EB
S113067011F40E94210282E20E948504813011F467
S11306800E94400283E20E948504813011F40E949A
S11306905F0284E20E948504813011F40E947E028C
S11306A085E20E948504813009F09FCF0E949D025B
S11306B09CCF9DEC899F912D1124969596959695A6
S11306C0392F330F232F220F220F230F821B613068
S11306D021F0623009F440C008959230B1F018F46A
S11306E0913031F008959330E9F0943041F1089558
S11306F04AB321E030E0B90102C0660F771F8A9542
S1130700E2F7CB01842B8ABB089547B321E030E0A4
S1130710B90102C0660F771F8A95E2F7CB01842BDB
S113072087BB089544B321E030E0B90102C0660FED
S1130730771F8A95E2F7CB01842B84BB089541B3DC
S113074021E030E0B90102C0660F771F8A95E2F715
S1130750CB01842B81BB08959230B9F018F4913009
S113076031F008959330F9F0943059F108954AB373
S113077021E030E0B90102C0660F771F8A95E2F7E5
S1130780CB01809584238ABB089547B321E030E0F0
S1130790B90102C0660F771F8A95E2F7CB018095F5
S11307A0842387BB089544B321E030E0B90102C03B
S11307B0660F771F8A95E2F7CB018095842384BB6B
S11307C0089541B321E030E0B90102C0660F771FFC
S11307D08A95E2F7CB018095842381BB08959DEC33
S11307E0899F912D1124969596959695392F330FBF
S11307F0232F220F220F230F821B613021F062303E
S113080009F440C008959230B1F018F4913031F0F9
S113081008959330E9F0943041F108954BB321E009
S113082030E0B90102C0660F771F8A95E2F7CB0169
S1130830842B8BBB089548B321E030E0B90102C09A
S1130840660F771F8A95E2F7CB01842B88BB089546
S113085045B321E030E0B90102C0660F771F8A95E5
S1130860E2F7CB01842B85BB089542B321E030E04D
S1130870B90102C0660F771F8A95E2F7CB01842B7A
S113088082BB08959230B9F018F4913031F0089594
S11308909330F9F0943059F108954BB321E030E0EE
S11308A0B90102C0660F771F8A95E2F7CB018095E4
S11308B084238BBB089548B321E030E0B90102C022
S11308C0660F771F8A95E2F7CB018095842388BB56
S11308D0089545B321E030E0B90102C0660F771FE7
S11308E08A95E2F7CB018095842385BB089542B3B2
S11308F021E030E0B90102C0660F771F8A95E2F764
S1130900CB018095842382BB08959DEC899F912D12
S11309101124292F269526952695220F322F330F41
S1130920330F230F821B282F892F86958695869552
S1130930823091F018F4813031F029C08330A9F06D
S11309408430E1F024C089B390E002C09595879586
S11309502A95E2F78170089586B390E002C09595D8
S113096087952A95E2F78170089583B390E002C0D9
S1130970959587952A95E2F78170089580B390E064
S113098002C0959587952A95E2F78170089580E0D5
S10909900895F894FFCF66
S1130996000A1F1F0E04000000000A0004110E00C6
S11309A60A0A1F11110E040401030509090B1B1879
S11309B60103071F1F070301040E0E0E1F00040088
S11309C6041F11111F1F1F1F000A15110A0400001E
S11309D60100010048656C6C6F004C657427732038
S10B09E65374617274210000D6
S9030000FC
