:100000000C942D000C94DF040C94DF040C94DF049A
:100010000C94DF040C94DF040C94DF040C94DF04D4
:100020000C94DF040C94DF040C94DF040C94DF04C4
:100030000C94DF040C94DF040C94DF040C94DF04B4
:100040000C943C030C94DF040C94DF040C94DF0448
:100050000C94DF0400600063800011241FBECFE514
:10006000D8E0DEBFCDBFE4E5F0E040E017C0B591D9
:10007000A59135912591059107FD0CC0959185912C
:10008000EF01F92FE82F05900D92A217B307D9F7CA
:10009000FE0104C01D92A217B307E1F7E935F4078A
:0E00A00031F70E9457000C94D404F894FFCF5F
:1000AE00CF93DF9300D0CDB7DEB71A8219820E94AC
:1000BE0014040E9470030E94CC030E943104BE01FE
:1000CE006F5F7F4F80E00E94020389809A80A12C8F
:1000DE00B12CA8E8B3E1A50194010E94C9046B01FB
:1000EE007C010B2EBAE0F694E794D794C794BA9598
:1000FE00D1F7B02D60E070E48CE990E00E94F2033D
:10010E0049015A0180E1881A87E2980AA108B108CC
:10011E000E94A303C701B601882799272AE041E070
:10012E000E9472040E94BE040E944A0426E042E02D
:10013E00C501B4010E9472040E9485049FE32DE064
:10014E0083E0915020408040E1F700C0000081E044
:10015E000E94F20198EE891693E09906A104B1046B
:10016E0068F461E08AE20E946C0162E089E20E941A
:10017E006C0162E088E20E946C01A1CF24EC821631
:10018E0029E09206A104B10468F462E08AE20E94BA
:10019E006C0161E089E20E946C0162E088E20E94DB
:1001AE006C018DCF62E08AE20E946C0162E089E20E
:0E01BE000E946C0161E088E20E946C0180CF1B
:1001CC009DEC899F912D1124969596959695392F96
:1001DC00330F232F220F220F230F821B282F613066
:1001EC0019F06230C1F108959230A1F018F49130F9
:1001FC0031F008959330C9F0943011F108953AB369
:10020C0081E090E002C0880F991F2A95E2F7832BBA
:10021C008ABB089537B381E090E002C0880F991F24
:10022C002A95E2F7832B87BB089534B381E090E0E5
:10023C0002C0880F991F2A95E2F7832B84BB08957F
:10024C0031B381E090E002C0880F991F2A95E2F744
:10025C00832B81BB08959230A9F018F4913031F0C2
:10026C0008959330D9F0943029F108953AB381E090
:10027C0090E002C0880F991F2A95E2F7809583239E
:10028C008ABB089537B381E090E002C0880F991FB4
:10029C002A95E2F78095832387BB089534B381E0D8
:1002AC0090E002C0880F991F2A95E2F7809583236E
:1002BC0084BB089531B381E090E002C0880F991F90
:0C02CC002A95E2F78095832381BB0895FA
:1002D8009DEC899F912D1124969596959695392F89
:1002E800330F232F220F220F230F821B282F613059
:1002F80019F06230C1F108959230A1F018F49130EC
:1003080031F008959330C9F0943011F108953BB35A
:1003180081E090E002C0880F991F2A95E2F7832BAD
:100328008BBB089538B381E090E002C0880F991F15
:100338002A95E2F7832B88BB089535B381E090E0D6
:1003480002C0880F991F2A95E2F7832B85BB089571
:1003580032B381E090E002C0880F991F2A95E2F736
:10036800832B82BB08959230A9F018F4913031F0B4
:1003780008959330D9F0943029F108953BB381E082
:1003880090E002C0880F991F2A95E2F78095832391
:100398008BBB089538B381E090E002C0880F991FA5
:1003A8002A95E2F78095832388BB089535B381E0C9
:1003B80090E002C0880F991F2A95E2F78095832361
:1003C80085BB089532B381E090E002C0880F991F81
:0C03D8002A95E2F78095832382BB0895EC
:1003E400CF93C82F62E084E10E946C01CC232CF4EB
:1003F40061E081E10E946C0104C062E081E10E943D
:100404006C01C6FF05C061E080E10E946C0104C07C
:1004140062E080E10E946C01C5FF05C061E08FE0ED
:100424000E946C0104C062E08FE00E946C01C4FF72
:1004340005C061E08EE00E946C0104C062E08EE0C1
:100444000E946C010E945F04C3FF05C061E081E16A
:100454000E946C0104C062E081E10E946C01C2FF51
:1004640005C061E080E10E946C0104C062E080E1AB
:100474000E946C01C1FF05C061E08FE00E946C0125
:1004840004C062E08FE00E946C01C0FF05C061E01F
:100494008EE00E946C0104C062E08EE00E946C0158
:0804A4000E945F04CF9108954E
:1004AC00CF93C82F61E084E10E946C01CC232CF423
:1004BC0061E081E10E946C0104C062E081E10E9474
:1004CC006C01C6FF05C061E080E10E946C0104C0B4
:1004DC0062E080E10E946C01C5FF05C061E08FE025
:1004EC000E946C0104C062E08FE00E946C01C4FFAA
:1004FC0005C061E08EE00E946C0104C062E08EE0F9
:10050C000E946C010E945F04C3FF05C061E081E1A1
:10051C000E946C0104C062E081E10E946C01C2FF88
:10052C0005C061E080E10E946C0104C062E080E1E2
:10053C000E946C01C1FF05C061E08FE00E946C015C
:10054C0004C062E08FE00E946C01C0FF05C061E056
:10055C008EE00E946C0104C062E08EE00E946C018F
:08056C000E945F04CF91089585
:100574001F93CF93DF93CDB7DEB72A970FB6F894C6
:10058400DEBF0FBECDBF6115710581059105C1F4B4
:1005940080E30E9456022AC02AE030E040E050E0A6
:1005A4000E94F203E1E0F0E0EC0FFD1FE10FF11D0A
:1005B400605D6083622F732F842F952F1F5F01C0AE
:1005C40010E0611571058105910531F70DC0E12F2A
:1005D400F0E0319781E090E08C0F9D1FE80FF91F48
:1005E40080810E94560211501111F1CF2A960FB644
:1005F400F894DEBF0FBECDBFDF91CF911F91089558
:10060400803280F56115710579F190916200911144
:100614002DC091E09093620097B1907E97B997B105
:10062400892B87B986B1806486B980E090E0DC01CB
:1006340003C00196A11DB11D349906C0803523EC79
:100644009207A105B105A8F3349B12C086B180615D
:1006540086B91092620084B195B1FB0191838083C5
:1006640080E0089581E0089581E0089581E008958F
:0406740081E0089584
:100678001F920F920FB60F9211242F933F934F930F
:100688005F936F937F938F939F93AF93BF93EF93F2
:10069800FF938091600090916100892B61F0109226
:1006A800620086B1877F86B984B195B1E091600018
:1006B800F09161000995FF91EF91BF91AF919F91E2
:1006C8008F917F916F915F914F913F912F910F90F3
:0806D8000FBE0F901F90189552
:1006E00061E08EE00E94E60061E08FE00E94E6009B
:1006F00061E080E10E94E60061E081E10E94E600A5
:1007000061E084E10E94E60061E086E10E94E6008B
:1007100061E085E10E94E60062E085E10E946C01F3
:1007200087EA91E60197F1F700C0000082E00E949D
:10073000F20188E20E94F2018EE00E94F20181E063
:060740000E94F201089581
:1007460041E061E086E50E94B30442E061E08FE6A5
:100756000E94B30443E061E08CE60E94B30444E0E7
:1007660061E084E70E94B30445E061E081E60E940F
:10077600B30446E061E087E60E94B30447E061E027
:1007860085E60E94B30448E061E08AE30E94B30470
:020796000895C4
:1007980041E061E088E40E94B30442E061E085E45E
:1007A8000E94B30443E061E08CE40E94B30444E097
:1007B80061E08CE40E94B30445E061E08FE40E94AC
:1007C800B3042FE38DE093E0215080409040E1F79F
:0C07D80000C0000081E00E94F2010895C2
:1007E400A1E21A2EAA1BBB1BFD010DC0AA1FBB1F31
:1007F400EE1FFF1FA217B307E407F50720F0A21BA3
:10080400B30BE40BF50B661F771F881F991F1A940F
:1008140069F760957095809590959B01AC01BD0139
:04082400CF01089563
:1008280061E088E20E94E60061E089E20E94E60059
:1008380061E08AE20E94E60062E08AE00E94E60047
:1008480062E088E20E946C0162E089E20E946C0129
:0A08580062E08AE20E946C0108953C
:1008620087B18F7787B987B1806487B987B18F7D68
:1008720087B986B18F7D86B986B1846086B986B123
:10088200826086B986B18E7F86B986B1806886B964
:020892000895C7
:1008940041E062E082E50E94B30442E062E085E662
:1008A4000E94B30443E062E083E70E94B30444E09F
:0A08B40062E08AE30E94B304089595
:1008BE0061E086E10E946C0183E08A95F1F7000009
:1008CE0062E086E10E946C0183EF91E00197F1F7FF
:0608DE0000C000000895B7
:1008E400CF92DF92EF92FF926B017C01842F622FF3
:1008F4000E949504C701B6010E94BA02FF90EF90CE
:06090400DF90CF90089582
:10090A004BE062E08FE60E94B3044CE062E088E6C6
:10091A000E94B3044DE062E08DE60E94B30408959C
:10092A00813019F0823031F008958FE7860F0E94E6
:0E093A00F20108958FEB860F0E94F2010895DE
:10094800A29FB001B39FC001A39F700D811D112408
:0E095800911DB29F700D811D1124911D0895F7
:10096600CF93C82F862F642F0E9495048C2F0E9448
:060976005602CF91089526
:10097C004EE061E08DE60E94B3044FE061E086E753
:06098C000E94B30408956F
:100992000E94A404A59F900DB49F900DA49F800D6A
:0609A200911D11240895CF
:1009A800EC010E94E4040E94E304CE010E94E504E5
:0609B800CE010E94E104E3
:0409BE000C94000095
:0409C2000E9455003A
:0209C600089592
:0209C800089590
:0209CA0008958E
:00000001FF
