:100000000C942D000C94D20A0C94D20A0C94D20AAF
:100010000C94D20A0C94D20A0C94D20A0C94D20AF0
:100020000C94D20A0C94D20A0C94D20A0C94D20AE0
:100030000C94D20A0C94D20A0C94D20A0C94D20AD0
:100040000C94D20A0C94D20A0C94D20A0C94D20AC0
:100050000C94D20A00600062800011241FBECFE51C
:10006000D8E0DEBFCDBFE4E5F0E040E017C0B591D9
:10007000A59135912591059107FD0CC0959185912C
:10008000EF01F92FE82F05900D92A217B307D9F7CA
:10009000FE0104C01D92A217B307E1F7E935F4078A
:0E00A00031F70E940B020C94830AF894FFCFF4
:1000AE00596F7520726561636865642074686500B8
:1000BE006D6178696D756D20617474656D707473A2
:0200CE0021000F
:1000D0003738392F343536783132332D43303D2B94
:1000E0000F931F93CF93DF93C82FCB01BA0120E06A
:1000F00030E040E055E40E94CB0A20E030E044EBE1
:1001000053E40E94C70A20E030E040E85EE30E942A
:10011000CB0A0E946A098B01C13009F45DC0C0E0BE
:10012000D0E0BAC062E08AE00E94D30361E08BE0D5
:100130000E94D30361E08CE00E94D30361E08DE074
:100140000E94D30387EA91E60197F1F700C000000F
:1001500061E08AE00E94D30362E08BE00E94D30357
:1001600061E08CE00E94D30361E08DE00E94D30344
:1001700087EA91E60197F1F700C0000061E08AE0AC
:100180000E94D30361E08BE00E94D30362E08CE025
:100190000E94D30361E08DE00E94D30387EA91E6D9
:1001A0000197F1F700C0000061E08AE00E94D303EC
:1001B00061E08BE00E94D30361E08CE00E94D303F6
:1001C00062E08DE00E94D30387EA91E60197F1F7A0
:1001D00000C00000219602C0C0E0D0E0C017D107E7
:1001E00008F4A0CF5DC061E08AE00E94D30361E023
:1001F0008BE00E94D30361E08CE00E94D30362E0B5
:100200008DE00E94D30387EA91E60197F1F700C0E1
:10021000000061E08AE00E94D30361E08BE00E946D
:10022000D30362E08CE00E94D30361E08DE00E9482
:10023000D30387EA91E60197F1F700C0000061E07F
:100240008AE00E94D30362E08BE00E94D30361E066
:100250008CE00E94D30361E08DE00E94D30387EA23
:1002600091E60197F1F700C0000062E08AE00E9489
:10027000D30361E08BE00E94D30361E08CE00E9435
:10028000D30361E08DE00E94D30387EA91E60197F2
:10029000F1F700C000002196C017D10708F4A3CFE2
:0A02A000DF91CF911F910F91089597
:1002AA00CF9341E061E081E30E94780A42E061E095
:1002BA008DE20E94780A43E061E084E40E94780AB1
:1002CA0044E061E083E40E94780A45E061E08DE45D
:1002DA000E94780A46E061E08FE60E94780A47E0C9
:1002EA0061E084E70E94780A48E061E08FE60E94B4
:1002FA00780A49E061E082E70E94780A4BE061E00F
:10030A0083E30E94780A4CE061E08DE20E94780A59
:10031A004DE061E085E40E94780A4EE061E088E5FC
:10032A000E94780A4FE061E089E40E94780A40E17D
:10033A0061E084E50E94780A41E062E082E30E947B
:10034A00780A42E062E08DE20E94780A43E062E0C5
:10035A0083E50E94780A44E062E084E70E94780A12
:10036A0045E062E085E60E94780A46E062E080E7BE
:10037A000E94780A47E062E080E70E94780A48E033
:10038A0062E085E60E94780A49E062E082E70E941C
:10039A00780A4AE062E080E20E94780A4BE062E072
:1003AA008DE40E94780A4CE062E08FE60E94780AA7
:1003BA004DE062E084E70E94780A4EE062E08FE650
:1003CA000E94780A4FE062E082E70E94780A0E945F
:1003DA006E07C82F0000823331F481E00E94B7050E
:1003EA000E94590411C0813331F481E00E94B7059B
:1003FA000E94410807C0833329F481E00E94B705AF
:0C040A000E94E009CD3319F7CF9108954E
:10041600FF920F931F93CF93DF93CDB7DEB7289745
:100426000FB6F894DEBF0FBECDBF81E3898382E3AA
:100436008A8383E38B8384E38C831D821E821F82DF
:1004460018860E9499090E94FE08F12C0E94B507A1
:1004560000E00E946E07182F00008F3F79F08D3361
:1004660069F0E5E0F0E0EC0FFD1FE00FF11D808381
:100476000F5F402F62E08AE20E94780A1D33D9F0AE
:10048600043038F380E090E041E050E018C0E1E04D
:10049600F0E0EC0FFD1FE80FF91F3081E5E0F0E01A
:1004A600EC0FFD1FE80FF91F2081321711F040E015
:1004B60050E0019604C080E090E041E050E08430D6
:1004C60091052CF3452BB1F081E00E94B7050E94FF
:1004D60022072FE38DE093E0215080409040E1F722
:1004E60000C0000081E00E94B7050E9455010E94ED
:1004F600D50630C081E00E94B7050E947F062FE333
:100506008DE093E0215080409040E1F700C000006C
:1005160081E00E94B705F39422E02F1508F096CFEC
:1005260041E061E08EEA90E0A0E00E946B0A41E0C3
:1005360062E08EEB90E0A0E00E946B0A8FE79AE102
:1005460026E0815090402040E1F700C0000081E0A5
:100556000E94B70580E090E028960FB6F894DEBFBB
:100566000FBECDBFDF91CF911F910F91FF900895E0
:1005760041E061E081E30E94780A42E061E08DE2B9
:100586000E94780A43E061E084E40E94780A44E02D
:1005960061E089E60E94780A45E061E082E70E9410
:1005A600780A46E061E085E60E94780A47E061E065
:1005B60083E60E94780A48E061E084E70E94780AB0
:1005C60049E061E089E60E94780A4AE061E08FE648
:1005D6000E94780A4BE061E08EE60E94780A4CE0C1
:1005E60061E08AE30E94780A4EE061E083E40E94BB
:1005F600780A4FE061E087E50E94780A41E062E010
:1006060082E30E94780A42E062E08DE20E94780A64
:1006160043E062E084E40E94780A44E062E089E60E
:100626000E94780A45E062E082E70E94780A46E086
:1006360062E085E60E94780A47E062E083E60E946F
:10064600780A48E062E084E70E94780A49E062E0BE
:1006560089E60E94780A4AE062E08FE60E94780AFC
:100666004BE062E08EE60E94780A4CE062E08AE3A4
:100676000E94780A4EE062E081E40E94780A4FE028
:1006860062E083E40E94780A40E162E087E50E9426
:04069600780A089541
:10069A009DEC899F912D1124969596959695392FC3
:1006AA00330F232F220F220F230F821B282F613093
:1006BA0019F06230C1F108959230A1F018F4913026
:1006CA0031F008959330C9F0943011F108953AB396
:1006DA0081E090E002C0880F991F2A95E2F7832BE8
:1006EA008ABB089537B381E090E002C0880F991F52
:1006FA002A95E2F7832B87BB089534B381E090E013
:10070A0002C0880F991F2A95E2F7832B84BB0895AC
:10071A0031B381E090E002C0880F991F2A95E2F771
:10072A00832B81BB08959230A9F018F4913031F0EF
:10073A0008959330D9F0943029F108953AB381E0BD
:10074A0090E002C0880F991F2A95E2F780958323CB
:10075A008ABB089537B381E090E002C0880F991FE1
:10076A002A95E2F78095832387BB089534B381E005
:10077A0090E002C0880F991F2A95E2F7809583239B
:10078A0084BB089531B381E090E002C0880F991FBD
:0C079A002A95E2F78095832381BB089527
:1007A6009DEC899F912D1124969596959695392FB6
:1007B600330F232F220F220F230F821B282F613086
:1007C60019F06230C1F108959230A1F018F4913019
:1007D60031F008959330C9F0943011F108953BB388
:1007E60081E090E002C0880F991F2A95E2F7832BDB
:1007F6008BBB089538B381E090E002C0880F991F43
:100806002A95E2F7832B88BB089535B381E090E003
:1008160002C0880F991F2A95E2F7832B85BB08959E
:1008260032B381E090E002C0880F991F2A95E2F763
:10083600832B82BB08959230A9F018F4913031F0E1
:1008460008959330D9F0943029F108953BB381E0AF
:1008560090E002C0880F991F2A95E2F780958323BE
:100866008BBB089538B381E090E002C0880F991FD2
:100876002A95E2F78095832388BB089535B381E0F6
:1008860090E002C0880F991F2A95E2F7809583238E
:1008960085BB089532B381E090E002C0880F991FAE
:0C08A6002A95E2F78095832382BB089519
:1008B20041E061E081E40E94780A42E061E08EE674
:1008C2000E94780A43E061E087E60E94780A44E0E9
:1008D20061E08CE60E94780A45E061E085E60E94CC
:1008E200780A46E061E08FE30E94780A48E061E01E
:1008F20081E30E94780A49E061E08DE20E94780A71
:100902004AE061E081E30E94780A4BE061E085E31E
:100912000E94780A4DE061E082E30E94780A4EE08C
:1009220061E08DE20E94780A4FE061E083E30E9479
:10093200780A40E161E080E30E94780A41E062E0E7
:1009420083E30E94780A42E062E08DE20E94780A24
:1009520043E062E084E30E94780A44E062E085E3D7
:100962000E94780A46E062E084E30E94780A47E047
:1009720062E08DE20E94780A48E062E086E30E942B
:10098200780A49E062E080E30E94780A4BE062E084
:1009920085E30E94780A4CE062E08DE20E94780AC8
:1009A2004DE062E089E30E94780A4EE062E080E373
:0A09B2000E94780A0E94D5060895FD
:1009BC0010C00E94B30A58F00E94AC0A40F029F40F
:1009CC005F3F29F00C94C10A51110C94BB0A0C9492
:1009DC00CF0A0E94BE0968F39923B1F3552391F312
:1009EC00951B550BBB27AA2762177307840738F092
:1009FC009F5F5F4F220F331F441FAA1FA9F335D0EF
:100A0C000E2E3AF0E0E832D091505040E695001CA2
:100A1C00CAF72BD0FE2F29D0660F771F881FBB1F5C
:100A2C00261737074807AB07B0E809F0BB0B802D3A
:100A3C00BF01FF2793585F4F3AF09E3F510578F066
:100A4C000C94C10A0C94BB0A5F3FE4F3983ED4F3B8
:100A5C00869577956795B795F7959F5FC9F7880F3A
:100A6C00911D9695879597F90895E1E0660F771F8C
:100A7C00881FBB1F621773078407BA0720F0621B1D
:0E0A8C00730B840BBA0BEE1F88F7E0950895EC
:100A9A000FC00E94AC0A38F00E94B30A20F09523D6
:100AAA0011F00C94C10A0C94CF0A11240C94BB0ABD
:100ABA000E94BE0970F3959FC1F3950F50E0551F30
:100ACA00629FF001729FBB27F00DB11D639FAA2799
:100ADA00F00DB11DAA1F649F6627B00DA11D661FE8
:100AEA00829F2227B00DA11D621F739FB00DA11D09
:100AFA00621F839FA00D611D221F749F3327A00DC3
:100B0A00611D231F849F600D211D822F762F6A2F5E
:100B1A0011249F5750409AF0F1F088234AF0EE0FC3
:100B2A00FF1FBB1F661F771F881F91505040A9F7F0
:100B3A009E3F510580F00C94C10A0C94BB0A5F3F9A
:100B4A00E4F3983ED4F3869577956795B795F7952C
:100B5A00E7959F5FC1F7FE2B880F911D96958795A4
:040B6A0097F908955A
:100B6E00CF93C82F62E084E10E94D303CC232CF4F0
:100B7E0061E081E10E94D30304C062E081E10E9442
:100B8E00D303C6FF05C061E080E10E94D30304C019
:100B9E0062E080E10E94D303C5FF05C061E08FE0F3
:100BAE000E94D30304C062E08FE00E94D303C4FF0F
:100BBE0005C061E08EE00E94D30304C062E08EE0C7
:100BCE000E94D3030E94F509C3FF05C061E081E1D5
:100BDE000E94D30304C062E081E10E94D303C2FFEE
:100BEE0005C061E080E10E94D30304C062E080E1B1
:100BFE000E94D303C1FF05C061E08FE00E94D303C2
:100C0E0004C062E08FE00E94D303C0FF05C061E024
:100C1E008EE00E94D30304C062E08EE00E94D303F4
:080C2E000E94F509CF91089521
:100C3600CF93C82F61E084E10E94D303CC232CF428
:100C460061E081E10E94D30304C062E081E10E9479
:100C5600D303C6FF05C061E080E10E94D30304C050
:100C660062E080E10E94D303C5FF05C061E08FE02A
:100C76000E94D30304C062E08FE00E94D303C4FF46
:100C860005C061E08EE00E94D30304C062E08EE0FE
:100C96000E94D3030E94F509C3FF05C061E081E10C
:100CA6000E94D30304C062E081E10E94D303C2FF25
:100CB60005C061E080E10E94D30304C062E080E1E8
:100CC6000E94D303C1FF05C061E08FE00E94D303F9
:100CD60004C062E08FE00E94D303C0FF05C061E05C
:100CE6008EE00E94D30304C062E08EE00E94D3032C
:080CF6000E94F509CF91089559
:100CFE0041E061E089E40E94780A42E061E08EE61C
:100D0E000E94780A43E061E083E40E94780A44E09E
:100D1E0061E08FE60E94780A45E061E082E70E947A
:100D2E00780A46E061E082E70E94780A47E061E0D7
:100D3E0085E60E94780A48E061E083E60E94780A20
:100D4E0049E061E084E70E94780A41E062E080E5D4
:100D5E000E94780A42E062E081E60E94780A43E04F
:100D6E0062E083E70E94780A44E062E083E70E9433
:100D7E00780A45E062E087E70E94780A46E062E082
:100D8E008FE60E94780A47E062E082E70E94780AC6
:0C0D9E0048E062E084E60E94780A0895B4
:100DAA000E946E070000813361F48FE090E0909317
:100DBA0061008093600081E00E94B7050E94FC07F1
:100DCA000895823361F48EE190E0909361008093FC
:100DDA00600081E00E94B7050E94FC0708958333F2
:100DEA0061F48DE290E0909361008093600081E06D
:100DFA000E94B7050E94FC070895843361F48CE3CE
:100E0A0090E0909361008093600081E00E94B705B2
:100E1A000E94FC070895853361F48AE590E0909377
:100E2A0061008093600081E00E94B7050E94FC0780
:0A0E3A0008958D3309F0B4CF089538
:100E440041E061E083E40E94780A42E061E08FE6D9
:100E54000E94780A43E061E082E70E94780A44E055
:100E640061E082E70E94780A45E061E085E60E943D
:100E7400780A46E061E083E60E94780A47E061E090
:100E840084E70E94780A49E061E080E50E94780ADC
:100E94004AE061E081E60E94780A4BE061E083E782
:100EA4000E94780A4CE061E083E70E94780A4DE0F2
:100EB40061E087E70E94780A4EE061E08FE60E94D5
:100EC400780A4FE061E082E70E94780A40E161E03D
:080ED40084E60E94780A0895EB
:100EDC001F93CF93DF931FEFDEE13AC062E08D2FBB
:100EEC000E94D303C2E22DC08C2F0E948108811175
:100EFC0027C081EE94E00197F1F700C000008C2F21
:100F0C000E94810881111CC08C2F0E9481088823AB
:100F1C00D9F38D2F90E04E972C2F30E022523109CF
:100F2C00880F991F880F991F820F931F092E000C91
:100F3C00AA0B80539F4FAF4FFC011491A7FD10815A
:100F4C00CF5FC63288F261E08D2F0E94D303DF5F42
:0E0F5C00D23220F2812FDF91CF911F910895A4
:100F6A0041E061E085E40E94780A42E061E08EE6B1
:100F7A000E94780A43E061E084E70E94780A44E02C
:100F8A0061E085E60E94780A45E061E082E70E9416
:100F9A00780A47E061E080E50E94780A48E061E06B
:100FAA0081E60E94780A49E061E083E70E94780AB4
:100FBA004AE061E083E70E94780A4BE061E087E754
:100FCA000E94780A4CE061E08FE60E94780A4DE0C0
:100FDA0061E082E70E94780A4EE061E084E60E94BE
:0E0FEA00780A4FE061E08AE30E94780A0895D9
:100FF8000E94BB020E946E0700008133E1F481E089
:101008000E94B7050E9437090E942D0A609160006E
:1010180070916100072E000C880B990B0E94C30881
:10102800AB01BC0180E00E94700081E00E94B7051E
:101038000E94E00908958233E1F481E00E94B70537
:101048000E9437090E942D0A60916000709161002A
:10105800072E000C880B990B0E94C308AB01BC013A
:1010680081E00E94700081E00E94B7050E94E009BB
:0A10780008958D3309F0BECF0895EE
:101082000E94BB020E946E0700008133D1F481E00E
:101092000E94B7050E9437090E941B0A0E948E0A0D
:1010A2002FE382E49FE0215080409040E1F700C0AE
:1010B20000000E94A20A81E00E94B7050E94E00996
:1010C20008958233D1F481E00E94B7050E94370966
:1010D2000E941B0A0E94980A2FE382E49FE021509B
:1010E20080409040E1F700C000000E94A20A81E027
:1010F2000E94B7050E94E00908958D3319F60895FC
:101102009DEC899F912D1124969596959695392F50
:10111200330F232F220F220F230F821B282F9230EF
:1011220091F018F4913031F029C09330A9F0943045
:10113200E1F024C089B390E002C0959587952A9585
:10114200E2F78170089586B390E002C09595879585
:101152002A95E2F78170089583B390E002C09595D5
:1011620087952A95E2F78170089580B390E002C0D6
:10117200959587952A95E2F78170089580E0089504
:10118200E89409C097FB3EF490958095709561951F
:101192007F4F8F4F9F4F9923A9F0F92F96E9BB27D5
:1011A2009395F695879577956795B795F111F8CF51
:1011B200FAF4BB0F11F460FF1BC06F5F7F4F8F4FBC
:1011C2009F4F16C0882311F096E911C0772321F0B2
:1011D2009EE8872F762F05C0662371F096E8862F4A
:1011E20070E060E02AF09A95660F771F881FDAF7A1
:0A11F200880F9695879597F90895E8
:1011FC0061E08EE00E944D0361E08FE00E944D03A0
:10120C0061E080E10E944D0361E081E10E944D03A9
:10121C0061E084E10E944D0361E086E10E944D0390
:10122C0061E085E10E944D0362E085E10E94D303F9
:10123C0087EA91E60197F1F700C0000083E30E9472
:10124C00B70582E40E94B70588E20E94B7058EE0DC
:10125C000E94B70581E00E94B70582E00E94B705A5
:02126C000895E3
:10126E0041E061E08CE40E94780A42E061E08FE6A2
:10127E000E94780A43E061E081E60E94780A44E029
:10128E0061E084E60E94780A45E061E089E60E940A
:10129E00780A46E061E08EE60E94780A47E061E057
:1012AE0087E60E94780A48E061E08EE20E94780AA2
:1012BE0049E061E08EE20E94780A4AE061E08EE247
:0612CE000E94780A089559
:1012D4000E94C60988F09F5798F0B92F9927B751F3
:1012E400B0F0E1F0660F771F881F991F1AF0BA95C6
:1012F400C9F714C0B13091F00E94BA0AB1E0089560
:101304000C94BA0A672F782F8827B85F39F0B93F51
:10131400CCF3869577956795B395D9F73EF4909578
:0E1324008095709561957F4F8F4F9F4F089574
:1013320061E08EE10E944D0361E08FE10E944D0366
:1013420061E080E20E944D0361E081E20E944D0370
:1013520062E082E20E944D0362E083E20E944D035A
:1013620062E084E20E944D0362E085E20E944D0346
:0A1372006FEF83E00E94080A08955F
:10137C0057FD9058440F551F59F05F3F71F047953A
:10138C00880F97FB991F61F09F3F79F0879508951F
:10139C00121613061406551FF2CF4695F1DF08C03E
:1013AC00161617061806991FF1CF8695710561055B
:0413BC0008940895F4
:1013C00041E061E084E40E94780A42E061E08FE657
:1013D0000E94780A43E061E08EE60E94780A44E0C9
:0A13E00061E085E60E94780A089596
:1013EA0061E086E10E94D30383E08A95F1F7000069
:1013FA0062E086E10E94D30383EF91E00197F1F75F
:06140A0000C0000008957F
:10141000823059F018F4813031F00895833039F07A
:10142000843039F008956BBB089568BB089565BB9F
:06143000089562BB08955F
:1014360061E088E20E944D0361E089E20E944D036B
:1014460062E088E20E94D30362E089E20E94D3034D
:0414560080E0089595
:10145A0061E08AE00E944D0361E08BE00E944D0347
:10146A0061E08CE00E944D0361E08DE00E944D0333
:02147A000895D3
:10147C00092E0394000C11F4882352F0BB0F40F496
:10148C00BF2B11F460FF04C06F5F7F4F8F4F9F4FD6
:02149C000895B1
:10149E00813019F0823031F008958FE7860F0E9467
:0E14AE00B70508958FEB860F0E94B7050895CD
:1014BC00CF93DF93EC0103C021960E941B06888119
:0A14CC008111FACFDF91CF9108954E
:1014D600CF93DF93EC01862F642F0E944F0ACE0133
:0A14E6000E945E0ADF91CF91089585
:1014F000CF93C82F862F642F0E944F0A8C2F0E94F3
:061500001B06CF910895C7
:10150600EC010E94D70A0E94D60ACE010E94D80A90
:06151600CE010E94D40A80
:10151C0061E088E20E94D30362E089E20E94D30377
:04152C0080E00895BE
:1015300062E088E20E94D30361E089E20E94D30363
:0415400080E00895AA
:1015440062E088E20E94D30362E089E20E94D3034E
:0415540080E0089596
:0E15580000240A9416161706180609060895B0
:0E15660000240A9412161306140605060895B2
:0E157400E894BB2766277727CB0197F90895E7
:0C15820097F99F6780E870E060E0089532
:08158E000E94DE040C943E0AE9
:081596000E944D050C943E0A71
:06159E009FEF80EC0895B0
:0415A4000C940000A3
:0415A8000E94550048
:0215AC000895A0
:0215AE0008959E
:0215B00008959C
:00000001FF
