:100000000C942D000C94230A0C944C0A0C94750A41
:100010000C94010C0C94010C0C94010C0C94010C2C
:100020000C94010C0C94010C0C94010C0C94010C1C
:100030000C94010C0C94010C0C94010C0C94010C0C
:100040000C94010C0C94010C0C94010C0C94010CFC
:100050000C94010C00600068800011241FBECFE5E5
:10006000D8E0DEBFCDBFE4E5F0E040E017C0B591D9
:10007000A59135912591059107FD0CC0959185912C
:10008000EF01F92FE82F05900D92A217B307D9F7CA
:10009000FE0104C01D92A217B307E1F7E935F4078A
:0E00A00031F70E94750B0C94A90BF894FFCF5A
:1000AE00596F7520726561636865642074686500B8
:1000BE006D6178696D756D20617474656D707473A2
:0200CE0021000F
:1000D0003738392F343536783132332D43303D2B94
:1000E0000F931F93CF93DF93C82FCB01BA0120E06A
:1000F00030E040E055E40E94FA0B20E030E044EBB1
:1001000053E40E94F60B20E030E040E85EE30E94FA
:10011000FA0B0E94F4098B01C13009F45DC0C0E004
:10012000D0E0BAC062E08AE00E945D0461E08BE04A
:100130000E945D0461E08CE00E945D0461E08DE05E
:100140000E945D0487EA91E60197F1F700C0000084
:1001500061E08AE00E945D0462E08BE00E945D0441
:1001600061E08CE00E945D0461E08DE00E945D042E
:1001700087EA91E60197F1F700C0000061E08AE0AC
:100180000E945D0461E08BE00E945D0462E08CE00F
:100190000E945D0461E08DE00E945D0487EA91E6C3
:1001A0000197F1F700C0000061E08AE00E945D0461
:1001B00061E08BE00E945D0461E08CE00E945D04E0
:1001C00062E08DE00E945D0487EA91E60197F1F715
:1001D00000C00000219602C0C0E0D0E0C017D107E7
:1001E00008F4A0CF5DC061E08AE00E945D0461E098
:1001F0008BE00E945D0461E08CE00E945D0462E09F
:100200008DE00E945D0487EA91E60197F1F700C056
:10021000000061E08AE00E945D0461E08BE00E94E2
:100220005D0462E08CE00E945D0461E08DE00E946C
:100230005D0487EA91E60197F1F700C0000061E0F4
:100240008AE00E945D0462E08BE00E945D0461E050
:100250008CE00E945D0461E08DE00E945D0487EA0D
:1002600091E60197F1F700C0000062E08AE00E9489
:100270005D0461E08BE00E945D0461E08CE00E941F
:100280005D0461E08DE00E945D0487EA91E60197DC
:10029000F1F700C000002196C017D10708F4A3CFE2
:0A02A000DF91CF911F910F91089597
:1002AA00CF9341E061E081E30E949E0B42E061E06E
:1002BA008DE20E949E0B43E061E084E40E949E0B63
:1002CA0044E061E083E40E949E0B45E061E08DE436
:1002DA000E949E0B46E061E08FE60E949E0B47E07B
:1002EA0061E084E70E949E0B48E061E08FE60E948D
:1002FA009E0B49E061E082E70E949E0B4BE061E0C1
:10030A0083E30E949E0B4CE061E08DE20E949E0B0B
:10031A004DE061E085E40E949E0B4EE061E088E5D5
:10032A000E949E0B4FE061E089E40E949E0B40E12F
:10033A0061E084E50E949E0B41E062E082E30E9454
:10034A009E0B42E062E08DE20E949E0B43E062E077
:10035A0083E50E949E0B44E062E084E70E949E0BC4
:10036A0045E062E085E60E949E0B46E062E080E797
:10037A000E949E0B47E062E080E70E949E0B48E0E5
:10038A0062E085E60E949E0B49E062E082E70E94F5
:10039A009E0B4AE062E080E20E949E0B4BE062E024
:1003AA008DE40E949E0B4CE062E08FE60E949E0B59
:1003BA004DE062E084E70E949E0B4EE062E08FE629
:1003CA000E949E0B4FE062E082E70E949E0B0E9411
:1003DA00F807C82F0000823331F481E00E944106F9
:1003EA000E94E30411C0813331F481E00E94410686
:1003FA000E94CB0807C0833329F481E00E9441069A
:0C040A000E94E50ACD3319F7CF91089548
:10041600FF920F931F93CF93DF93CDB7DEB7289745
:100426000FB6F894DEBF0FBECDBF81E3898382E3AA
:100436008A8383E38B8384E38C831D821E821F82DF
:1004460018860E949E0A0E948809F12C0E943F0885
:1004560000E00E94F807182F00008F3F79F08D33D7
:1004660069F0E5E0F0E0EC0FFD1FE00FF11D808381
:100476000F5F402F62E08AE20E949E0B1D33D9F087
:10048600043038F380E090E041E050E018C0E1E04D
:10049600F0E0EC0FFD1FE80FF91F3081E5E0F0E01A
:1004A600EC0FFD1FE80FF91F2081321711F040E015
:1004B60050E0019604C080E090E041E050E08430D6
:1004C60091052CF3452BB1F081E00E9441060E9474
:1004D600AC072FE38DE093E0215080409040E1F798
:1004E60000C0000081E00E9441060E9455010E9462
:1004F6005F0730C081E00E9441060E9409072FE392
:100506008DE093E0215080409040E1F700C000006C
:1005160081E00E944106F39422E02F1508F096CF61
:1005260041E061E08EEA90E0A0E00E94910B41E09C
:1005360062E08EEB90E0A0E00E94910B8FE79AE1DB
:1005460026E0815090402040E1F700C0000081E0A5
:100556000E94410628960FB6F894DEBF0FBECDBFA7
:0C056600DF91CF911F910F91FF9008953D
:1005720041E061E081E30E949E0B42E061E08DE296
:100582000E949E0B43E061E084E40E949E0B44E0E3
:1005920061E089E60E949E0B45E061E082E70E94ED
:1005A2009E0B46E061E085E60E949E0B47E061E01B
:1005B20083E60E949E0B48E061E084E70E949E0B66
:1005C20049E061E089E60E949E0B4AE061E08FE625
:1005D2000E949E0B4BE061E08EE60E949E0B4CE077
:1005E20061E08AE30E949E0B4EE061E083E40E9498
:1005F2009E0B4FE061E087E50E949E0B41E062E0C6
:1006020082E30E949E0B42E062E08DE20E949E0B1A
:1006120043E062E084E40E949E0B44E062E089E6EB
:100622000E949E0B45E062E082E70E949E0B46E03C
:1006320062E085E60E949E0B47E062E083E60E944C
:100642009E0B48E062E084E70E949E0B49E062E074
:1006520089E60E949E0B4AE062E08FE60E949E0BB2
:100662004BE062E08EE60E949E0B4CE062E08AE381
:100672000E949E0B4EE062E081E40E949E0B4FE0DE
:1006820062E083E40E949E0B40E162E087E50E9403
:040692009E0B08951E
:100696008130C9F120F0823009F469C07DC0613033
:1006A60089F028F06230C9F0633011F177C085B760
:1006B600826085BF85B7816085BF8BB780648BBF3D
:1006C60080E0089585B7826085BF85B78E7F85BF38
:1006D6008BB780648BBF80E0089585B78D7F85BF1B
:1006E60085B7816085BF8BB780648BBF80E0089536
:1006F60085B78D7F85BF85B78E7F85BF8BB78064B5
:100706008BBF80E00895613089F028F06230C9F02F
:10071600633011F145C085B7886085BF85B78460B1
:1007260085BF8BB780688BBF80E0089585B78860EA
:1007360085BF85B78B7F85BF8BB780688BBF80E011
:10074600089585B7877F85BF85B7846085BF8BB7DA
:1007560080688BBF80E0089585B7877F85BF85B7A2
:100766008B7F85BF8BB780688BBF80E0089566233B
:1007760019F0613049F016C084B7806484BF8BB726
:1007860080628BBF80E0089584B78F7B84BF8BB770
:1007960080628BBF80E0089581E0089581E008952E
:0807A60081E0089581E008954F
:1007AE009DEC899F912D1124969596959695392FAE
:1007BE00330F232F220F220F230F821B282F61307E
:1007CE0019F06230C1F108959230A1F018F4913011
:1007DE0031F008959330C9F0943011F108953AB381
:1007EE0081E090E002C0880F991F2A95E2F7832BD3
:1007FE008ABB089537B381E090E002C0880F991F3D
:10080E002A95E2F7832B87BB089534B381E090E0FD
:10081E0002C0880F991F2A95E2F7832B84BB089597
:10082E0031B381E090E002C0880F991F2A95E2F75C
:10083E00832B81BB08959230A9F018F4913031F0DA
:10084E0008959330D9F0943029F108953AB381E0A8
:10085E0090E002C0880F991F2A95E2F780958323B6
:10086E008ABB089537B381E090E002C0880F991FCC
:10087E002A95E2F78095832387BB089534B381E0F0
:10088E0090E002C0880F991F2A95E2F78095832386
:10089E0084BB089531B381E090E002C0880F991FA8
:0C08AE002A95E2F78095832381BB089512
:1008BA009DEC899F912D1124969596959695392FA1
:1008CA00330F232F220F220F230F821B282F613071
:1008DA0019F06230C1F108959230A1F018F4913004
:1008EA0031F008959330C9F0943011F108953BB373
:1008FA0081E090E002C0880F991F2A95E2F7832BC6
:10090A008BBB089538B381E090E002C0880F991F2D
:10091A002A95E2F7832B88BB089535B381E090E0EE
:10092A0002C0880F991F2A95E2F7832B85BB089589
:10093A0032B381E090E002C0880F991F2A95E2F74E
:10094A00832B82BB08959230A9F018F4913031F0CC
:10095A0008959330D9F0943029F108953BB381E09A
:10096A0090E002C0880F991F2A95E2F780958323A9
:10097A008BBB089538B381E090E002C0880F991FBD
:10098A002A95E2F78095832388BB089535B381E0E1
:10099A0090E002C0880F991F2A95E2F78095832379
:1009AA0085BB089532B381E090E002C0880F991F99
:0C09BA002A95E2F78095832382BB089504
:1009C60041E061E081E40E949E0B42E061E08EE638
:1009D6000E949E0B43E061E087E60E949E0B44E086
:1009E60061E08CE60E949E0B45E061E085E60E9490
:1009F6009E0B46E061E08FE30E949E0B48E061E0BB
:100A060081E30E949E0B49E061E08DE20E949E0B0D
:100A16004AE061E081E30E949E0B4BE061E085E3E2
:100A26000E949E0B4DE061E082E30E949E0B4EE029
:100A360061E08DE20E949E0B4FE061E083E30E943D
:100A46009E0B40E161E080E30E949E0B41E062E084
:100A560083E30E949E0B42E062E08DE20E949E0BC1
:100A660043E062E084E30E949E0B44E062E085E39B
:100A76000E949E0B46E062E084E30E949E0B47E0E4
:100A860062E08DE20E949E0B48E062E086E30E94EF
:100A96009E0B49E062E080E30E949E0B4BE062E021
:100AA60085E30E949E0B4CE062E08DE20E949E0B65
:100AB6004DE062E089E30E949E0B4EE062E080E337
:0A0AC6000E949E0B0E945F07089536
:100AD00010C00E94D90B58F00E94D20B40F029F4AC
:100AE0005F3F29F00C94E70B51110C94E10B0C942F
:100AF000FE0B0E94C30A68F39923B1F3552391F3C7
:100B0000951B550BBB27AA2762177307840738F07C
:100B10009F5F5F4F220F331F441FAA1FA9F335D0D9
:100B20000E2E3AF0E0E832D091505040E695001C8D
:100B3000CAF72BD0FE2F29D0660F771F881FBB1F47
:100B4000261737074807AB07B0E809F0BB0B802D25
:100B5000BF01FF2793585F4F3AF09E3F510578F051
:100B60000C94E70B0C94E10B5F3FE4F3983ED4F355
:100B7000869577956795B795F7959F5FC9F7880F25
:100B8000911D9695879597F90895E1E0660F771F77
:100B9000881FBB1F621773078407BA0720F0621B08
:0E0BA000730B840BBA0BEE1F88F7E0950895D7
:100BAE000FC00E94D20B38F00E94D90B20F0952373
:100BBE0011F00C94E70B0C94FE0B11240C94E10B2A
:100BCE000E94C30A70F3959FC1F3950F50E0551F15
:100BDE00629FF001729FBB27F00DB11D639FAA2784
:100BEE00F00DB11DAA1F649F6627B00DA11D661FD3
:100BFE00829F2227B00DA11D621F739FB00DA11DF4
:100C0E00621F839FA00D611D221F749F3327A00DAD
:100C1E00611D231F849F600D211D822F762F6A2F49
:100C2E0011249F5750409AF0F1F088234AF0EE0FAE
:100C3E00FF1FBB1F661F771F881F91505040A9F7DB
:100C4E009E3F510580F00C94E70B0C94E10B5F3F37
:100C5E00E4F3983ED4F3869577956795B795F79517
:100C6E00E7959F5FC1F7FE2B880F911D969587958F
:040C7E0097F9089545
:100C8200CF93C82F62E084E10E945D04CC232CF450
:100C920061E081E10E945D0404C062E081E10E94A2
:100CA2005D04C6FF05C061E080E10E945D0404C0EE
:100CB20062E080E10E945D04C5FF05C061E08FE053
:100CC2000E945D0404C062E08FE00E945D04C4FFE4
:100CD20005C061E08EE00E945D0404C062E08EE027
:100CE2000E945D040E94FA0AC3FF05C061E081E12F
:100CF2000E945D0404C062E081E10E945D04C2FFC3
:100D020005C061E080E10E945D0404C062E080E110
:100D12000E945D04C1FF05C061E08FE00E945D0496
:100D220004C062E08FE00E945D04C0FF05C061E084
:100D32008EE00E945D0404C062E08EE00E945D04C9
:080D42000E94FA0ACF91089506
:100D4A00CF93C82F61E084E10E945D04CC232CF488
:100D5A0061E081E10E945D0404C062E081E10E94D9
:100D6A005D04C6FF05C061E080E10E945D0404C025
:100D7A0062E080E10E945D04C5FF05C061E08FE08A
:100D8A000E945D0404C062E08FE00E945D04C4FF1B
:100D9A0005C061E08EE00E945D0404C062E08EE05E
:100DAA000E945D040E94FA0AC3FF05C061E081E166
:100DBA000E945D0404C062E081E10E945D04C2FFFA
:100DCA0005C061E080E10E945D0404C062E080E148
:100DDA000E945D04C1FF05C061E08FE00E945D04CE
:100DEA0004C062E08FE00E945D04C0FF05C061E0BC
:100DFA008EE00E945D0404C062E08EE00E945D0401
:080E0A000E94FA0ACF9108953D
:100E120041E061E089E40E949E0B42E061E08EE6DF
:100E22000E949E0B43E061E083E40E949E0B44E03B
:100E320061E08FE60E949E0B45E061E082E70E943E
:100E42009E0B46E061E082E70E949E0B47E061E074
:100E520085E60E949E0B48E061E083E60E949E0BBD
:100E620049E061E084E70E949E0B41E062E080E598
:100E72000E949E0B42E062E081E60E949E0B43E0EC
:100E820062E083E70E949E0B44E062E083E70E94F7
:100E92009E0B45E062E087E70E949E0B46E062E01F
:100EA2008FE60E949E0B47E062E082E70E949E0B63
:0C0EB20048E062E084E60E949E0B089578
:100EBE000E94F8070000813361F48FE090E0909378
:100ECE0067008093660081E00E9441060E948608BA
:100EDE000895823361F48EE190E0909367008093E1
:100EEE00660081E00E9441060E94860808958333C1
:100EFE0061F48DE290E0909367008093660081E04C
:100F0E000E9441060E9486080895843361F48CE3A2
:100F1E0090E0909367008093660081E00E94410606
:100F2E000E9486080895853361F48AE590E09093D7
:100F3E0067008093660081E00E9441060E94860849
:0A0F4E0008958D3309F0B4CF089523
:100F580041E061E083E40E949E0B42E061E08FE69D
:100F68000E949E0B43E061E082E70E949E0B44E0F2
:100F780061E082E70E949E0B45E061E085E60E9401
:100F88009E0B46E061E083E60E949E0B47E061E02D
:100F980084E70E949E0B49E061E080E50E949E0B79
:100FA8004AE061E081E60E949E0B4BE061E083E746
:100FB8000E949E0B4CE061E083E70E949E0B4DE08F
:100FC80061E087E70E949E0B4EE061E08FE60E9499
:100FD8009E0B4FE061E082E70E949E0B40E161E0DA
:080FE80084E60E949E0B0895AF
:100FF0001F93CF93DF931FEFDEE13AC062E08D2FA6
:101000000E945D04C2E22DC08C2F0E940B09811149
:1010100027C081EE94E00197F1F700C000008C2F0B
:101020000E940B0981111CC08C2F0E940B09882380
:10103000D9F38D2F90E04E972C2F30E022523109BA
:10104000880F991F880F991F820F931F092E000C7C
:10105000AA0B80539F4FAF4FFC011491A7FD108145
:10106000CF5FC63288F261E08D2F0E945D04DF5FA2
:0E107000D23220F2812FDF91CF911F9108958F
:10107E0041E061E085E40E949E0B42E061E08EE675
:10108E000E949E0B43E061E084E70E949E0B44E0C9
:10109E0061E085E60E949E0B45E061E082E70E94DA
:1010AE009E0B47E061E080E50E949E0B48E061E008
:1010BE0081E60E949E0B49E061E083E70E949E0B51
:1010CE004AE061E083E70E949E0B4BE061E087E718
:1010DE000E949E0B4CE061E08FE60E949E0B4DE05D
:1010EE0061E082E70E949E0B4EE061E084E60E9482
:0E10FE009E0B4FE061E08AE30E949E0B089576
:10110C000E94B9020E94F80700008133E1F481E0EB
:10111C000E9441060E94C1090E94440B6091660026
:10112C0070916700072E000C880B990B0E944D09DB
:10113C00AB01BC0180E00E94700081E00E9441067E
:10114C000E94E50A08958233E1F481E00E94410691
:10115C000E94C1090E94440B609166007091670067
:10116C00072E000C880B990B0E944D09AB01BC019A
:10117C0081E00E94700081E00E9441060E94E50A15
:0A118C0008958D3309F0BECF0895D9
:101196000E94B9020E94F80700008133D1F481E071
:1011A6000E9441060E94C1090E94200B0E94B40BB6
:1011B6002FE382E49FE0215080409040E1F700C099
:1011C60000000E94C80B81E00E9441060E94E50AC9
:1011D60008958233D1F481E00E9441060E94C1093C
:1011E6000E94200B0E94BE0B2FE382E49FE0215059
:1011F60080409040E1F700C000000E94C80B81E0EB
:101206000E9441060E94E50A08958D3319F6089555
:101216009DEC899F912D1124969596959695392F3B
:10122600330F232F220F220F230F821B282F9230DA
:1012360091F018F4913031F029C09330A9F0943030
:10124600E1F024C089B390E002C0959587952A9570
:10125600E2F78170089586B390E002C09595879570
:101266002A95E2F78170089583B390E002C09595C0
:1012760087952A95E2F78170089580B390E002C0C1
:10128600959587952A95E2F78170089580E00895EF
:10129600E89409C097FB3EF490958095709561950A
:1012A6007F4F8F4F9F4F9923A9F0F92F96E9BB27C0
:1012B6009395F695879577956795B795F111F8CF3C
:1012C600FAF4BB0F11F460FF1BC06F5F7F4F8F4FA7
:1012D6009F4F16C0882311F096E911C0772321F09D
:1012E6009EE8872F762F05C0662371F096E8862F35
:1012F60070E060E02AF09A95660F771F881FDAF78C
:0A130600880F9695879597F90895D2
:1013100061E08EE00E94D70361E08FE00E94D70376
:1013200061E080E10E94D70361E081E10E94D70380
:1013300061E084E10E94D70361E086E10E94D70367
:1013400061E085E10E94D70362E085E10E945D04CF
:1013500087EA91E60197F1F700C0000083E30E945D
:10136000410682E40E94410688E20E9441068EE026
:101370000E94410681E00E94410682E00E944106EF
:021380000895CE
:1013820041E061E08CE40E949E0B42E061E08FE666
:101392000E949E0B43E061E081E60E949E0B44E0C6
:1013A20061E084E60E949E0B45E061E089E60E94CE
:1013B2009E0B46E061E08EE60E949E0B47E061E0F4
:1013C20087E60E949E0B48E061E08EE20E949E0B3F
:1013D20049E061E08EE20E949E0B4AE061E08EE20B
:0613E2000E949E0B08951D
:1013E8000E94CB0A88F09F5798F0B92F9927B751D8
:1013F800B0F0E1F0660F771F881F991F1AF0BA95B1
:10140800C9F714C0B13091F00E94E00BB1E0089523
:101418000C94E00B672F782F8827B85F39F0B93F15
:10142800CCF3869577956795B395D9F73EF4909563
:0E1438008095709561957F4F8F4F9F4F08955F
:101446001F920F920FB60F9211242F933F934F9333
:101456005F936F937F938F939F93AF93BF93EF9316
:10146600FF93E0916000F0916100309709F00995D3
:10147600FF91EF91BF91AF919F918F917F916F9166
:101486005F914F913F912F910F900FBE0F901F903C
:021496001895A7
:101498001F920F920FB60F9211242F933F934F93E1
:1014A8005F936F937F938F939F93AF93BF93EF93C4
:1014B800FF93E0916200F0916300309709F009957D
:1014C800FF91EF91BF91AF919F918F917F916F9114
:1014D8005F914F913F912F910F900FBE0F901F90EA
:0214E800189555
:1014EA001F920F920FB60F9211242F933F934F938F
:1014FA005F936F937F938F939F93AF93BF93EF9372
:10150A00FF93E0916400F0916500309709F0099526
:10151A00FF91EF91BF91AF919F918F917F916F91C1
:10152A005F914F913F912F910F900FBE0F901F9097
:02153A00189502
:10153C0061E08EE10E94D70361E08FE10E94D70346
:10154C0061E080E20E94D70361E081E20E94D70350
:10155C0062E082E20E94D70362E083E20E94D7033A
:10156C0062E084E20E94D70362E085E20E94D70326
:0A157C006FEF83E00E940D0B08954D
:1015860057FD9058440F551F59F05F3F71F047952E
:10159600880F97FB991F61F09F3F79F08795089513
:1015A600121613061406551FF2CF4695F1DF08C032
:1015B600161617061806991FF1CF8695710561054F
:0415C60008940895E8
:1015CA0041E061E084E40E949E0B42E061E08FE624
:1015DA000E949E0B43E061E08EE60E949E0B44E06F
:0A15EA0061E085E60E949E0B089563
:1015F40061E086E10E945D0483E08A95F1F70000D2
:1016040062E086E10E945D0483EF91E00197F1F7C7
:0616140000C00000089573
:10161A00823059F018F4813031F00895833039F06E
:10162A00843039F008956BBB089568BB089565BB93
:06163A00089562BB089553
:1016400061E088E20E94D70361E089E20E94D7034B
:1016500062E088E20E945D0462E089E20E945D042B
:0416600080E0089589
:10166400633060F4009761F0E62FF0E0EE0FFF1FA7
:10167400E05AFF4F9183808380E0089581E00895CC
:0416840081E0089564
:1016880061E08AE00E94D70361E08BE00E94D70303
:1016980061E08CE00E94D70361E08DE00E94D703EF
:0216A8000895A3
:1016AA00092E0394000C11F4882352F0BB0F40F466
:1016BA00BF2B11F460FF04C06F5F7F4F8F4F9F4FA6
:0216CA00089581
:1016CC00813019F0823031F008958FE7860F0E9437
:0E16DC00410608958FEB860F0E944106089587
:1016EA000E94ED0B0E94F20B60E080E00E944B0327
:0E16FA0060E070E08BE092E00E94320BFFCFC8
:10170800CF93DF93EC0103C021960E94A506888140
:0A1718008111FACFDF91CF910895FF
:10172200CF93DF93EC01862F642F0E94660BCE01CC
:0A1732000E94840BDF91CF9108950F
:10173C00CF93C82F862F642F0E94660B8C2F0E948C
:06174C00A506CF910895EF
:10175200EC010E94060C0E94050CCE010E94070CAF
:06176200CE010E94030C01
:1017680061E088E20E945D0462E089E20E945D0413
:0417780080E0089570
:10177C0062E088E20E945D0461E089E20E945D04FF
:04178C0080E008955C
:1017900062E088E20E945D0462E089E20E945D04EA
:0417A00080E0089548
:0E17A40000240A941616170618060906089562
:0E17B20000240A941216130614060506089564
:0E17C000E894BB2766277727CB0197F9089599
:0C17CE0097F99F6780E870E060E00895E4
:0A17DA0062E08AE20E94D70308953E
:0817E4008FB780688FBF0895E4
:0817EC000E9468050C94550BE6
:0817F4000E94D7050C94550B6F
:0617FC009FEF80EC089550
:041802000C94000042
:041806000E945500E7
:02180A0008953F
:02180C0008953D
:02180E0008953B
:00000001FF
